:100000000C949D000C94C5000C94C5000C94C50084
:100010000C94C5000C94C5000C94C5000C94C5004C
:100020000C94C5000C94C5000C94C5000C94C5003C
:100030000C94C5000C94C5000C94C5000C94C5002C
:100040000C945D0F0C94C5000C942C0E0C94060EB1
:100050000C94C5000C94C5000C94C5000C94C5000C
:100060000C94C5000C94C500FA06FD0600070307B2
:10007000060709070C070F074641494C4544207401
:100080006F2073656E642043414E00000000002322
:1000900000260029000404040404040404020202EB
:1000A00002020203030303030301020408102040B9
:1000B0008001020408102001020408102000000042
:1000C0000800020100000304070000000000000017
:1000D0000000000000240027002A0053746172749D
:1000E0000050726F7A6573736F726665686C6572C3
:1000F000200053686F72743A204576656E74002054
:1001000020204576656E7420004C6F6E673A204E55
:100110006F64654E6F200077726974652076617236
:1001200020746F20656570726F6D000000000025FF
:100130000028002B0000741B701B11241FBECFEF82
:10014000D8E0DEBFCDBF12E0A0E0B1E0EAE0FFE31F
:1001500002C005900D92A431B107D9F725E0A4E1C2
:10016000B2E001C01D92A03AB207E1F710E0CCE97D
:10017000D0E004C02197FE010E94451ECB39D10773
:10018000C9F70E9429150C94781F0C9400002F9237
:100190003F924F925F926F927F928F929F92AF9217
:1001A000BF92CF92DF92EF92FF920F931F93CF9364
:1001B000DF9380918D058F3F29F480918C058F3FCF
:1001C00009F44FC00E94510F0091900510919105C4
:1001D0002091920530919305DC01CB01801B910B9E
:1001E000A20BB30B84369105A105B105D0F1809126
:1001F0000005909101050597A9F480918F05813044
:1002000041F460E080918D050E94870E10928F0569
:100210001EC061E080918D050E94870E81E0809371
:100220008F0515C080916E04813039F460E08091B3
:100230008C050E94870E61E006C061E080918C050C
:100240000E94870E60E080918D050E94870E0E94BB
:10025000510F609390057093910580939205909350
:100260009305209194052F3F71F130E0F901E3549B
:10027000FF4F8491F901E755FF4FD491F901EB56F7
:10028000FF4FC491CC2379F081110E945E0EEC2FB8
:10029000F0E0EE0FFF1FE557FF4FA591B491EC91F1
:1002A000ED2309F05FC380919505813061F40E94D0
:1002B000510F60930205709303058093040590939A
:1002C0000505109295058091000590910105049710
:1002D00009F072C00E94510F0091020510910305B0
:1002E0002091040530910505DC01CB01801B910BA9
:1002F000A20BB30B893E9340A105B10508F45CC085
:1003000083E090E09093010580930005409186057D
:10031000A7E0B5E081E0841740F02091860530E049
:10032000E6E0F5E080E090E017C02D919FEF980F98
:10033000E92FF0E0EF01CA5FDA4F3881E95FFA4F49
:10034000231718F430839150F3CF20838F5FE3CFCE
:100350004191C41730F00196C1E0C80F821793078E
:10036000BCF3C09340046C2F82E190E00E943709F7
:10037000C0939D048091B1048823F1F080919E0484
:1003800090919F0422E520936F04909370048093D2
:1003900071041092720410927304109274041092FB
:1003A0007504109276046C2F70E080E090E02FE6E8
:1003B00034E043E00E94D81143E0242E312CD1E0F8
:1003C00099249A9459E5B52E63ED762E72E5872E21
:1003D0001092B2048091FA049091FB04892B09F0E9
:1003E00008C621E030E03093FB042093FA048091AA
:1003F000FE049091FF04181619062CF01092FB04CD
:100400001092FA04F6C58091FC049091FD04CC97FB
:1004100024F01092FD041092FC04E0E6F5E0A091B7
:10042000FC04B091FD04A654BB4F12968C918193AD
:100430008091FC049091FD0401969093FD048093BB
:10044000FC048091FE049091FF0401979093FF04B7
:100450008093FE048FE695E08E179F0701F71092B8
:10046000FB041092FA04EAE8F4E0119222E934E085
:100470002E173F07D1F7109296041092980410920D
:100480009704109299044090600540927C0460901B
:10049000620560929204509063055092930480919B
:1004A0006405809394048091650580939504E6E645
:1004B000F5E08191DF01AD5DB1098C938EE695E0A9
:1004C0008E179F07B1F7C0918A04C0937A04C43095
:1004D00008F4B7C0C73009F4B4C09C2F9F7B9F338A
:1004E00009F4AFC082EA8C0F823008F4AAC08C2FC6
:1004F0008F7D8F3909F4A5C0C63B09F4A2C0CF3D5A
:1005000009F49FC02CEF2C0F233008F49DC028EF76
:100510002C0F233008F498C02FED2C0F233008F453
:1005200093C0C03409F490C02CEB2C0F273008F492
:100530008BC0CC3409F488C02C2F2F7730EA320FCF
:10054000323008F481C0233609F47EC0803809F4C3
:100550007BC02EE72C0F243008F476C0C23A09F491
:1005600073C020E42C0F223008F46EC026EA2C0F52
:10057000223008F46CC020E72C0F253008F467C047
:1005800028E62C0F233008F462C08D59823008F41D
:100590005EC08C2F877F805B823008F458C08DE46A
:1005A000890F823008F453C081E38C0F833008F444
:1005B0004EC08CE28C0F823008F449C088E28C0F68
:1005C000823008F444C083E28C0F823008F43FC0CC
:1005D00080E18C0F8230D8F18AE08C0F8630B8F140
:1005E00083E08C0F833098F184EF8C0F823090F190
:1005F00080EF8C0F823070F1C23461F180EB8C0F90
:100600008A3040F184EA8C0F823020F181E98C0F2E
:10061000873000F18BE68C0F8330E0F085E68C0F9D
:100620008230C0F0923BB1F0953BA1F08EE28C0F8E
:10063000823080F0C23E71F0CF3E61F000E010E009
:100640000BC004E010E008C001E010E005C003E0CA
:1006500010E002C002E010E010937E0400937D04DD
:10066000809161058111D093990410925604A09055
:100670004504A11004C0909256048FEF02C08091EF
:10068000060481FBDD24D0F887E794E00E94AE0FDA
:10069000C82E882319F0DD2009F4E2C187E794E031
:1006A0000E94C30F8823B1F087E794E00E94D80F1F
:1006B0007C010097A9F0BC0180E090E00E94C71384
:1006C0002091460430E0482F50E0241735070CF401
:1006D00083C432C0CC20E1F091E0D91219C005C02A
:1006E000CC2061F1F1E0DF1229C087E794E00E949D
:1006F0000310009769F0BC0180E090E00E94C713EE
:100700002091460430E0482F50E024173507A4F428
:1007100087E794E00E94D80F7C01892B79F0B7011C
:1007200080E090E00E94C7132091460430E0482FFB
:1007300050E02417350714F08F5F01C080E08093EC
:10074000B20480919904882389F080919E0490914D
:100750009F04892B59F060919D0470E080E090E047
:100760002FE634E040E00E94D81132CEC090000560
:10077000D0900105E4E0CE16D104E1F4411028CE7A
:1007800080918605833608F023CEF0E16F9E9001BC
:100790001124652C6294669437E06322622A609289
:1007A0007904E82FF0E0EA5FFA4F60828F5F809370
:1007B00086050ECE0230110561F148F401301105B5
:1007C00009F0C3C0E0918905F0918A0519C0E09154
:1007D0008705F09188050330110521F004301105DB
:1007E00031F0B3C08091AA0480FDAFC009C08091F0
:1007F000AA0480FDAAC0C73009F048C10C940000CB
:10080000309709F4A2C06AE374E087E794E00995A1
:100810009CC087E794E00E9413087C0100919E042D
:1008200010919F048017910709F434C1C601029703
:10083000039708F02FC1CD3089F0C03109F4C8CD3D
:10084000C13109F0C5CD60C0C43508F077C1C031F1
:1008500051F108F034C1CD3009F0BACD01151105C0
:1008600009F4B6CD8091AA049091A9042091A8041E
:1008700036EB30936F04109370040093710420934F
:100880007204909373048093740410927504109210
:100890007604B801660F771F600F711F80E090E04B
:1008A0000E94170F2BC025E0C216D10409F090CD8D
:1008B000EFE6F4E0119234E0E737F307D9F78091DF
:1008C000AC049091AF042091AE043091AD044091FE
:1008D000A9045091AB046091A8047FEE70936F045B
:1008E00060937004509371044093720430937304C6
:1008F0002093740490937504809376040E94C91227
:10090000882309F465CD21C083E01CC0C73508F4F5
:100910002FC1C73509F0A1C1F0904304FF2009F4AD
:1009200057CDE12EC0E092EFD92EFC1609F450CD40
:100930008C2F0E94E810FC0180915604882309F452
:100940006EC18AE00E94641343CDE0918705F09167
:100950008805309709F43CCD6AE374E087E794E0BA
:10096000099536CD809195058111ADCC81E08093BC
:1009700095050E94510F00910205109103052091E9
:10098000040530910505DC01CB01801B910BA20B06
:10099000B30B8C019D01095E134021093109073811
:1009A000134121053105C0F420916E0480910005AA
:1009B00090910105213061F4059739F483E090E0CE
:1009C00090930105809300057ECC0E944C137BCC54
:1009D000059709F078CCF2CF81379741A105B10591
:1009E00008F471CC80916E04811117C080910005CC
:1009F00090910105059711F360E080918C050E94AC
:100A0000870E80E00E94D31480910005909101052B
:100A10000497D9F60E94C700F7CF10926E04609138
:100A2000AA046B7F6093AA046093500485E190E070
:100A30000E9437098091AA0481FD07C010929F048B
:100A400010929E0480E090E008C08091B4049091E0
:100A5000B50490939F0480939E040E94171533CC95
:100A600087E794E00E9403107C0187E794E00E94EE
:100A70001308B7010E94C7132091460430E0482FA5
:100A800050E0241735070CF409CE56CECE3509F4C4
:100A9000B5CEB6CECD3541F4E016F10609F098CCCE
:100AA00081E00E94D31494CCCE3508F069C0C335E0
:100AB00009F0CACE109201051092000589CCC1310F
:100AC000A9F445E0C416D10409F01ECF8091A60414
:100AD0009091A5042091A4043091A3044091A20414
:100AE0005091A1046091A00472EEF8CEC23409F0D6
:100AF0006FCC85E0C816D10409F006CFF0929F04B0
:100B0000E0929E04C7010E94171580919E04909167
:100B10009F0480926F0490937004809371041092EC
:100B2000720410927304109274041092750410925F
:100B300076043092010520920005E0CEC63509F01A
:100B4000E5CE8091AD0490914304891B90E790938A
:100B50006F041093700400937104809372041092D8
:100B60007304109274041092750410927604C6CE29
:100B7000C43509F046C030920105209200053EC000
:100B8000C53909F4A3C008F4C9C0C23B09F455C172
:100B900008F077C1C63909F085C1C0918D04C150F4
:100BA00010918E04C33149F410939D0410934004B6
:100BB000612F82E190E00E9437098091AF048C1789
:100BC00008F469C1412F6C2F8CE394E00E94650901
:100BD00080919E0490919F04B0926F049093700452
:100BE0008093710410927204109273041092740432
:100BF00010927504109276040E94C912D093B30427
:100C0000E7CBC53509F0E4CBCD2809F0E1CB60E0B6
:100C100087E190E00E94370910924304D9CB838189
:100C2000928121813081D0926F04E0927004009310
:100C3000710430937204209373049093740480932E
:100C40007504C09376040E94C912882321F088E7B6
:100C500090E00E945B11CF5F68CEC83509F0B8CB39
:100C60008091430494E790936F0410937004009371
:100C70007104809372041FC0C33708F47CC0C3376B
:100C800009F49EC0C53709F0A3CB60918D04609331
:100C90009D046093400482E190E00E9437098091B6
:100CA0009E0490919F0480926F04909370048093AF
:100CB00071041092720410927304109274041092D2
:100CC0007504109276040E94C91282CB87E794E0E3
:100CD0000E940310BC01C7010E94C713C82F1092C5
:100CE0000605109207051092080510920905482F75
:100CF00066E075E08CE394E00E948D09C81711F05E
:100D000086E020CE6C2F70E020E040E08CE394E0A1
:100D10000E943B09882309F45BCB13CEC23709F04C
:100D2000ABCFEFE6F4E087E794E011928E179F07D0
:100D3000E1F70E947613C82F8FEF8C0F0E94E81006
:100D4000FC01809156048111DBCF83819281218146
:100D5000308142EF40936F0410937004009371044C
:100D600030937204209373049093740480937504F9
:100D7000C0937604A8CFC13709F02ACB90918D0497
:100D8000EFEFE90F10925604EA1520F09092560406
:100D90008FEF06C0F0E0EE0FFF1FEA5FFB4F808190
:100DA000209156042111CDCD27E920936F04109393
:100DB00070040093710490937204809373047DCF48
:100DC00020918D0421110BC08BE980936F04109347
:100DD0007004009371041092720488E0EECF822FA9
:100DE00090E0FC013197E830F105E0F4EC5CFF4F56
:100DF0000C94451E8091A80416C08091AB0413C0CA
:100E00008091A90410C08091AD040DC08091AE0402
:100E10000AC08091AF0407C08091AC0404C08091E7
:100E2000AA0401C080E09BE990936F0410937004C2
:100E30000093710420937204C0CFCD2851F50E9415
:100E40008D13C82F0E94E8108C0160E08C2F0E9447
:100E5000A41390915604911153CFF80193812281EC
:100E60003181408170926F0440937004309371041B
:100E70002093720490937304C09374048093750458
:100E800020CFC23DC9F1C53F09F0A2CACD2809F45F
:100E900064C082E057CDCF3F09F4B0CE89E00E9414
:100EA0006413ACCECC3909F093CA0E947613182F84
:100EB0000E948D13C82F8091AE048C1708F441CD89
:100EC0006FEF6C0F8FEF810F0E94A4139091560467
:100ED000911137CD90919E0420919F04E5EBE09312
:100EE0006F04209370049093710410937204C09364
:100EF000730480937404E3CE87E794E00E940310A8
:100F0000082FD92E0E948D13C82F10919004F092B3
:100F10000605E0920705D092080500930905482FC1
:100F200066E075E08CE394E00E948D098C13E8CEB6
:100F3000682F70E0212F40E08CE394E00E943B0991
:100F4000C82F83E491E00E94AC106AE070E08C2F1F
:100F50000E944D11C111F5CC38C087E794E00E9482
:100F60000310D82EC92E0E948D13C82F0091910412
:100F70000E947613182FF0920605E0920705C092A2
:100F80000805D09209054FEF480F66E075E08CE345
:100F900094E00E948D09682F70E0212F30E02150ED
:100FA00031096217730709F0ABCE4FEF4C0F202FBA
:100FB0008CE394E00E943B0990E02C2F30E021501C
:100FC00031098217930709F0BCCC80919E0490915F
:100FD0009F04B0926F0469CECC2009F4A0CB21E02D
:100FE000D21609F482CB87E794E00E94D80F7C01E7
:100FF00096CB80E0DF91CF911F910F91FF90EF9002
:10100000DF90CF90BF90AF909F908F907F906F9028
:101010005F904F903F902F9008950C94E31E0C9496
:10102000E31E0C94E31EFC0193899234A9F180EB3A
:10103000890F8B3088F184EA890F823068F181E969
:10104000890F873048F180E7890F8F3028F180E5DC
:10105000890F873008F188E4890F8230E8F0292F62
:101060002F7B2D5B2230C0F080E3890F8630A0F00B
:1010700088E2890F823080F083E2890F823060F04D
:10108000933E51F080E1890F823030F0935F9730CA
:1010900018F080E090E00895848995899827892741
:1010A000982708951F93CF93DF93EC01FB01E85835
:1010B000FF4F108180915602882349F083EC91E024
:1010C0000E94AC106AE070E0812F0E944D11112344
:1010D00029F1113109F0AFC00E94F20E60935B025A
:1010E00070935C0280935D0290935E028091570240
:1010F00090915802A0915902B0915A02892B8A2BE3
:101100008B2B09F098C00E94F20E609357027093E7
:1011100058028093590290935A028DC08B81893076
:1011200061F48091B702882341F0809156028823B0
:1011300021F083ED91E00E943010809156028823C7
:1011400009F479C0CE010E94AE0F8823A9F089E08E
:1011500091E00E943E10CE010E941308BC0180E085
:1011600090E04AE00E9459108FEF90E00E943E10FC
:10117000CE010E9403100CC0CE010E94C30F882331
:1011800061F082EF90E00E943E10CE010E94D80FE5
:10119000DF91CF911F910C949A1081EE91E00E9403
:1011A000AC1060E170E08B810E94AE1086EE91E0A1
:1011B0000E94AC10CE010E941308BC0180E090E0B8
:1011C0004AE00E9459108DEE91E00E94AC102B8DE8
:1011D00080E1289F900111248C8D829586958770DF
:1011E000822B8A836AE070E00E94AE1085EF91E066
:1011F0000E94AC108B8990E025E0959587952A9503
:10120000E1F78C836AE070E00E94AE1083E092E028
:101210000E94AC106091000570910105072E000C32
:10122000880B990B0E94BC1081E791E0DF91CF9170
:101230001F910C941E10DF91CF911F910895089576
:10124000FC018CE191E091838083DF015396CF0113
:101250004B961D92A817B907E1F7138E148E158EC1
:10126000168E178E11A210A212A2089508950C9442
:10127000061E0C94FE1DCF93FC01DB01878190E0DC
:101280006817790718F081E0840F1DC0938549170E
:10129000D0F7622FC42F492F50E04C5F5F4F4A9F19
:1012A00090014B9F300D5A9F300D112485859685F6
:1012B000820F931F4C2F50E04C5F5F4F840F951FA0
:1012C0000E9437098C2FCF9108951F93CF93DF93FE
:1012D000FC0181858617E8F0142FC62FD0E0FE01AF
:1012E000EE0FFF1FEA5FFB4F842F90E09183808316
:1012F0006996CE010E943909181759F087E191E0EB
:101300000E945B11612FCE01DF91CF911F910C9450
:101310003709DF91CF911F910895CF92DF92EF921D
:10132000FF921F93CF93DF93FC011285411718F0B2
:1013300081E0810F4DC0142FFB01DC01842F90E070
:10134000EC01CC0FDD1FC25ADC4F208130E0398325
:101350002883EC01CC0FDD1FC857DC4F218130E022
:1013600039832883EC01CC0FDD1FCE54DC4F228162
:1013700030E039832883EC01CC0FDD1FC452DC4FF1
:10138000238130E0398328831B962C911B9730E012
:101390002C5F3F4F289F7001299FF00C389FF00C65
:1013A00011241D968D919C911E97E80EF91E6B01DC
:1013B00084E0C80ED11CEB01E61AF70AC7018C0FB6
:1013C0009D1F69910E943709CC15DD05B9F7812F62
:1013D000DF91CF911F91FF90EF90DF90CF90089514
:1013E000FC0180E090E0238530E0821793073CF415
:1013F000A281B381A80FB91F1C920196F4CF84E695
:101400008483158288EC86831782148A0895EF926C
:10141000FF920F931F93CF93DF9300D000D0CDB7EF
:10142000DEB78C010E94F009F8018285878319825A
:101430001A8286E48B8384EB8C83E12CF12CF801F7
:10144000828590E0E816F90604F5F0E1EF16F10464
:1014500019F491E1E92EF12C4E2DBE016F5F7F4F03
:10146000C8010E948D098C818F5F8C83811103C01C
:101470008B818F5F8B8320E040E0B701C8010E9421
:101480003B098FEFE81AF80ADACF19821A8282E153
:101490008B8387E68C8340E1BE016F5F7F4FC8017D
:1014A0000E948D09F801628570E06150710920E0A9
:1014B00040E0C8010E943B0946E060E0C8010E948C
:1014C0006509FF24F39441E06F2DC8010E9465096E
:1014D000F394F1E1FF12F7CF86E1F82E41E06F2D92
:1014E000C8010E946509F3948AE1F812F7CF40E041
:1014F00061E1C8010E94650940E062E1C8010E9403
:10150000650940E065E1C8010E94650944E663E1C0
:10151000C8010E94650943E064E1C8010E946509B1
:101520006AE580E090E00E943709F801648182E179
:1015300090E00E943709F801658183E190E00E9404
:101540003709F801668184E190E00E943709F801CB
:10155000648985E190E00E943709F801678187E19D
:1015600090E00E943709F801638588E190E00E94CD
:101570003709C8010E94C70A0F900F900F900F9073
:10158000DF91CF911F910F91FF90EF900895CF932E
:10159000DF93EC010E94F00980E090E00E9439099D
:1015A0008A3519F0CE010E94070A82E190E00E947C
:1015B00039098C8383E190E00E9439098D8384E1AD
:1015C00090E00E9439098E8385E190E00E943909FC
:1015D0008C8B87E190E00E9439098F83DF91CF9156
:1015E000089524E331E0FC013183208382819381DB
:1015F000009711F00C94E31E0895CF93DF93EC0154
:101600000E94F10ACE01DF91CF910C94E31E2CE3EE
:1016100031E0FC0121933193CF010C94F10ACF9377
:10162000DF93EC010E94070BCE01DF91CF910C9468
:10163000E31E0895E82FF0E0E15CFD4F208190EF7C
:10164000980F22FF28C0983008F047C0E82FE770B5
:101650004091550250E00E2E02C0559547950A94D0
:10166000E2F72091AE023091AF0240FD28C041E088
:1016700050E060E070E004C0440F551F661F771F04
:10168000EA95D2F740955095422353235093AF02E9
:101690004093AE02ADC0983008F041C0E82FE7702B
:1016A0004091550250E00E2E02C0559547950A9480
:1016B000E2F72091AE023091AF0240FDD8CF41E079
:1016C00050E060E070E004C0440F551F661F771FB4
:1016D000EA95D2F7422B532BD9CF883008F447C074
:1016E000E82FE7704091540250E00E2E02C055954D
:1016F00047950A94E2F72091A8023091A90240FF91
:1017000022C041E050E060E070E004C0440F551F8B
:10171000661F771FEA95D2F7422B532B23C08830E0
:1017200008F443C0E82FE7704091540250E00E2EB9
:1017300002C0559547950A94E2F72091A80230918E
:10174000A90240FFDECF41E050E060E070E004C05D
:10175000440F551F661F771FEA95D2F740955095A5
:10176000422353235093A9024093A80241C04091C1
:10177000530250E0082E02C0559547950A94E2F7AF
:101780002091A6023091A70240FF1EC041E050E028
:1017900060E070E0082E04C0440F551F661F771FDD
:1017A0000A94D2F7422B532B1FC04091530250E0B2
:1017B000082E02C0559547950A94E2F72091A6029B
:1017C0003091A70240FFE2CF41E050E060E070E0DE
:1017D000082E04C0440F551F661F771F0A94D2F7C6
:1017E00040955095422353235093A7024093A6025D
:1017F00020914504983060F4253120F18091A802B1
:101800009091A90299279093310480933004089510
:10181000883060F02231B0F08091A8029091A90246
:10182000992790932B0480932A040895213150F036
:101830008091A6029091A702992790932904809302
:101840002804089508959F92AF92BF92CF92DF929D
:10185000EF92FF920F931F93CF93DF931092B304F5
:1018600090911502909314021092560480914504B1
:10187000811104C08FEF8093560402C0809106044A
:10188000282F237030E03595279520931602282FB6
:1018900021702093B702869586958093150298173C
:1018A000D1F0813059F038F0823059F0833069F44A
:1018B0008DEA91E008C08EE991E005C083EA91E0ED
:1018C00002C088EA91E00E94301065E070E080E09C
:1018D00090E00E94170F80915602882351F08BE010
:1018E00092E00E94AC1065E070E080E090E00E9421
:1018F000170F1092560480914504853128F48FEF1C
:1019000080935604CFEF02C0C0912E04CF70CA302E
:1019100008F0C9E08091B602C817A9F080E192E012
:101920000E94AC106AE070E08C2F0E94AE1089E734
:1019300091E00E94AC1065E070E080E090E00E94D1
:10194000170FC093B6022FE3E22E22E0F22E07E13A
:1019500012E0C0E0D0E0B12CD12C99249A94CC2490
:10196000C394CB0C1092560480914504C81628F0FD
:1019700090925604AA24AA9407C0EC2DF0E0EE0F32
:10198000FF1FEA5FFB4FA080F70180818A1589F075
:101990008D2D0E94E810FC01828193819827892770
:1019A0009827F801918380838C2F0E941A0BF701EE
:1019B000A08281E08D0D2196C431D10581F0C03126
:1019C000D10529F482E08D0D96E0C92ECB0C9FEF56
:1019D000E91AF90A0E5F1F4FBC2CD82EC0CFDF9139
:1019E000CF911F910F91FF90EF90DF90CF90BF901C
:1019F000AF909F900895CF92DF92EF92FF920F9356
:101A00001F93CF93DF936C017A018B01C0E0D0E08C
:101A1000CE15DF0581F0D8016D918D01D601ED91D4
:101A2000FC910190F081E02DC6010995892B11F000
:101A30002196EECF7E01C701DF91CF911F910F91CB
:101A4000FF90EF90DF90CF900895089580E090E0B0
:101A50000895FC01538D448D252F30E0842F90E0B4
:101A6000821B930B541710F0CF9608950197089599
:101A7000FC01918D828D981761F0828DDF01A80F96
:101A8000B11D5D968C91928D9F5F9F73928F90E0B8
:101A900008958FEF9FEF0895FC01918D828D981727
:101AA00031F0828DE80FF11D858D90E008958FEF64
:101AB0009FEF0895FC01918D228D892F90E0805C2D
:101AC0009F4F821B91098F739927089581EC92E0B3
:101AD0000E945A0D21E0892B09F420E0822F0895FD
:101AE000FC01848DDF01A80FB11DA35ABF4F2C91BB
:101AF000848D90E001968F739927848FA689B7898A
:101B00002C93A089B1898C9180648C93938D848D62
:101B1000981306C00288F389E02D80818F7D808331
:101B20000895EF92FF920F931F93CF93DF93EC01F1
:101B300081E0888F9B8D8C8D981305C0E889F98989
:101B4000808185FD24C0F62E0B8D10E00F5F1F4FA6
:101B50000F731127E02E8C8DE8120CC00FB607FC16
:101B6000FACFE889F989808185FFF5CFCE010E94FF
:101B7000700DF1CF8B8DFE01E80FF11DE35AFF4F81
:101B8000F0820B8FEA89FB898081806207C0EE8931
:101B9000FF896083E889F98980818064808381E09E
:101BA00090E0DF91CF911F910F91FF90EF900895FA
:101BB000CF93DF93EC01888D8823C9F0EA89FB89F4
:101BC000808185FD05C0A889B9898C9186FD0FC0EB
:101BD0000FB607FCF5CF808185FFF2CFA889B989C0
:101BE0008C9185FFEDCFCE010E94700DE7CFDF9184
:101BF000CF91089580E090E0892B29F00E94660D36
:101C000081110C94000008950E946C1F1F920F9286
:101C10000FB60F9211242F933F934F935F936F93BF
:101C20007F938F939F93AF93BF93EF93FF9381EC39
:101C300092E00E94700DFF91EF91BF91AF919F9143
:101C40008F917F916F915F914F913F912F910F9065
:101C50000FBE0F901F9018951F920F920FB60F9204
:101C600011242F938F939F93EF93FF93E091D102D1
:101C7000F091D2028081E091D702F091D80282FDEA
:101C800012C090818091DA028F5F8F732091DB0206
:101C9000821751F0E091DA02F0E0EF53FD4F958F9B
:101CA0008093DA0201C08081FF91EF919F918F9123
:101CB0002F910F900FBE0F901F901895833081F0D9
:101CC00028F4813099F08230A1F008958730A9F08E
:101CD0008830B9F08430D1F4809180008F7D03C0CA
:101CE000809180008F7780938000089584B58F77EE
:101CF00002C084B58F7D84BD08958091B0008F7738
:101D000003C08091B0008F7D8093B00008951F9331
:101D1000CF93DF93282F30E0F901E354FF4F8491F4
:101D2000F901E755FF4FD491F901EB56FF4FC491EC
:101D3000CC23C1F0162F81110E945E0EEC2FF0E033
:101D4000EE0FFF1FE55DFE4FA591B4919FB7F8948C
:101D5000111104C08C91D095D82302C0EC91DE2BD8
:101D6000DC939FBFDF91CF911F910895CF93DF93B5
:101D700090E0FC01E755FF4F2491FC01EB56FF4F2B
:101D80008491882361F190E0880F991FFC01EF5244
:101D9000FF4FC591D491FC01E55DFE4FA591B49133
:101DA000611109C09FB7F8948881209582238883A8
:101DB000EC912E230BC0623061F49FB7F8948881B8
:101DC000322F309583238883EC912E2B2C939FBF49
:101DD00006C08FB7F894E8812E2B28838FBFDF9140
:101DE000CF9108953FB7F8948091BD029091BE02C3
:101DF000A091BF02B091C00226B5A89B05C02F3F9D
:101E000019F00196A11DB11D3FBFBA2FA92F982F20
:101E10008827820F911DA11DB11DBC01CD0142E09B
:101E2000660F771F881F991F4A95D1F708958F92E3
:101E30009F92AF92BF92CF92DF92EF92FF926B018F
:101E40007C010E94F20E4B015C01C114D104E1043B
:101E5000F104F1F00E94F20EDC01CB01881999091E
:101E6000AA09BB09883E9340A105B10570F321E0A2
:101E7000C21AD108E108F10888EE880E83E0981EA6
:101E8000A11CB11CC114D104E104F10419F7DDCF88
:101E9000FF90EF90DF90CF90BF90AF909F908F908A
:101EA00008952FB7F8946091B9027091BA028091A9
:101EB000BB029091BC022FBF08951F920F920FB6E4
:101EC0000F9211242F933F938F939F93AF93BF93C0
:101ED0008091B9029091BA02A091BB02B091BC026C
:101EE0003091B80223E0230F2D3720F40196A11D75
:101EF000B11D05C026E8230F0296A11DB11D209338
:101F0000B8028093B9029093BA02A093BB02B09337
:101F1000BC028091BD029091BE02A091BF02B0911F
:101F2000C0020196A11DB11D8093BD029093BE0217
:101F3000A093BF02B093C002BF91AF919F918F91C8
:101F40003F912F910F900FBE0F901F9018958EBD4F
:101F500000000DB407FEFDCF8EB50895FC019381FE
:101F6000892F8F7D8059823058F080E3890F82302D
:101F700038F081E0903F31F0913F21F080E008950A
:101F800081E008950895FC019381892F8F7D885900
:101F9000823058F088E2890F823038F081E0983F33
:101FA00031F0993F21F080E0089581E0089508958F
:101FB000FC0193819B35C1F088E6890F8330A0F046
:101FC000892F8F798D59823078F088E4890F82309B
:101FD00058F088E2890F823038F088E0890F843029
:101FE00018F080E090E0089586E0890F823010F0CC
:101FF0009B3519F48489958902C086899789982729
:10200000892798270895FC019381292F2F7B205938
:10201000263070F080E5890F853050F080E1890F1F
:10202000823030F0935F933018F080E090E00895B4
:10203000868997899827892798270895009769F0B6
:10204000FC0101900020E9F73197AF01481B590BC3
:10205000BC0181EC92E00C94FB0C80E090E00895D0
:10206000CF93DF930E941E10EC0181E791E00E9464
:102070001E108C0F9D1FDF91CF9108950F931F931A
:10208000CF93DF938C01C0E0D0E0F801EC0FFD1F8F
:102090006491662341F081EC92E00E94910D892BBE
:1020A00011F02196F2CFCE01DF91CF911F910F91C8
:1020B00008958F929F92AF92BF920F931F93CF93E9
:1020C000DF93CDB7DEB7A1970FB6F894DEBF0FBE92
:1020D000CDBF19A2423008F44AE08E010F5D1F4FB8
:1020E000842E912CA12CB12CA50194010E94141EC8
:1020F000E62FB901CA0101501109EA3014F4E05D7C
:1021000001C0E95CD801EC93232B242B252B61F72C
:10211000C8010E941E10A1960FB6F894DEBF0FBE34
:10212000CDBFDF91CF911F910F91BF90AF909F9046
:102130008F900895CF93DF93BC0180E090E04AE058
:102140000E945910EC0181E791E00E941E108C0F53
:102150009D1FDF91CF9108950C941E10AB01682F45
:102160004115510521F481EC92E00C94910D70E041
:1021700080E090E00C945910CF92DF92EF92FF92A2
:10218000CF93DF9397FF1BC06B017C016DE281EC65
:1021900092E00E94910DEC0166277727CB016C1924
:1021A0007D098E099F094AE00E9459108C0F9D1FDE
:1021B000DF91CF91FF90EF90DF90CF9008954AE0AC
:1021C000DF91CF91FF90EF90DF90CF900C9459105A
:1021D00010924C0410924D0410924E0410924F0431
:1021E0001092560490914604981720F09091430461
:1021F000981720F481E08093560421C090E0FC0100
:10220000EE0FFF1FE25AFC4F208120934C04FC018B
:10221000EE0FFF1FE857FC4F208120934D04FC0177
:10222000EE0FFF1FEE54FC4F208120934E04880FC9
:10223000991FFC01E452FC4F808180934F048CE491
:1022400094E00895FF920F931F93CF93DF93C82FCD
:10225000F62E072F142F60E0809167040E94870EEE
:1022600082E00E94A70F8C2F0E94A70FCF2DD02FA6
:10227000CE01810F911D8C01C017D10721F08991EA
:102280000E94A70FF9CF61E080916704DF91CF91A1
:102290001F910F91FF900C94870ECF93DF930E94B4
:1022A000AE10EC0181E791E00E941E108C0F9D1F83
:1022B000DF91CF910895CF93DF930E943E10EC0100
:1022C00081E791E00E941E108C0F9D1FDF91CF913E
:1022D00008950F931F93CF93DF93082F162FCAE310
:1022E000D4E060E08DA50E94870E82E00E94A70FD7
:1022F000802F0E94A70F812F0E94A70F61E08DA55C
:10230000DF91CF911F910F910C94870EFF920F9345
:102310001F93CF93DF93F82E062F142FCAE3D4E038
:1023200060E08DA50E94870E85E00E94A70F8F2D8B
:102330000E94A70F802F0E94A70F812F0E94A70F36
:1023400061E08DA5DF91CF911F910F91FF900C94CB
:10235000870E1F93CF93DF93182FCAE3D4E060E07A
:102360008DA50E94870E83E00E94A70F812F0E94F7
:10237000A70F80E00E94A70F182F61E08DA50E9493
:10238000870E812FDF91CF911F910895CF93C82F92
:10239000482F60EE8FE00E9486118FE00E94A91105
:1023A000982F907E81E09C1301C080E0CF9108952A
:1023B0004F925F926F928F929F92AF92BF92CF9205
:1023C000DF92FF920F931F93CF93DF9300D000D043
:1023D000CDB7DEB710925704609358047093590438
:1023E00080935A0490935B04493008F048E040938E
:1023F0005C0410926504ADE5B4E0F90150E0CF0152
:10240000821B930B841795071CF481918D93F7CF52
:10241000A12CB12C409040015090410160904201AC
:102420004E0124E0820E911C49825A826B82CE01B9
:1024300001966C01F82E0D2DF60111916F01812F7F
:102440000E94A911982F987083FD02C01F5F05C0DC
:102450008C149D0489F710E092E0FFEFAF1ABF0AD9
:10246000923029F422E3A216B104F1F67CC082E393
:10247000A816B10409F477C040915C046DE574E0DE
:1024800085E0810F0E94221180916504813029F43A
:1024900080915C04806480935C0460915C0484E0BF
:1024A000810F0E9469114091580450915904609124
:1024B0005A0470915B04809157048130B1F44C83CD
:1024C0005B83AB0166277727942F9C71842F8370E1
:1024D000E8E09E9F800D112488608A8365E0569510
:1024E00047956A95E1F749830DC0CA0123E09695A7
:1024F00087952A95E1F789834295440F407E4A8368
:102500001C821B8244E06F2D702F812F0E942211AC
:10251000115048E068E0812F0E948611C12CD12C17
:10252000FFEFCF1ADF0A812F0E94A91183FF05C098
:1025300022E3C216D104A1F718C082E3C816D10461
:10254000A1F0109258041092590410925A0410925B
:102550005B0410925C041092570410926504109270
:10256000660480E003C086E001C087E00F900F9012
:102570000F900F90DF91CF911F910F91FF90DF90FF
:10258000CF90BF90AF909F908F906F905F904F9043
:102590000895CF93DF93C0916F04C295C695C7701D
:1025A000CF5F81E080936C0480936D0460919D0403
:1025B00070E080E090E02FE634E04C2F0E94D811CC
:1025C000811102C080E00FC0D3E060919D0470E0F3
:1025D00080E090E02FE634E04C2F0E94D811882351
:1025E00089F3D15091F7DF91CF910895882371F04D
:1025F00010925604809145048431F8F080912C04A7
:1026000090E990936F041092700409C080919E0429
:1026100090919F0428E920936F0490937004809315
:102620007104709372046093730410927404109296
:102630007504109276040C94C9128FEF809356049F
:10264000DFCF882371F010925604809145048431C5
:10265000F8F080912C0491E990936F04109270042B
:1026600009C080919E0490919F0429E920936F04F2
:102670009093700480937104709372046093730458
:102680001092740410927504109276040C94C9127E
:102690008FEF80935604DFCFEAE3F4E085E090E02B
:1026A0009093010580930005AEE9B4E08C911196FA
:1026B0009C9120E525AB96AB87AB10AE11AE12AE68
:1026C00013AE14AE0C94C912EAE3F4E0AEE9B4E040
:1026D0009C9111962C913FE635AB26AB97AB80AF22
:1026E00011AE12AE13AE14AE0C94C91280917A04DE
:1026F000823721F08C3911F0853B19F480918D04DB
:102700000895853F19F480918F040895823F19F44C
:1027100080919104089580E0089580917A048C3925
:1027200011F0853B19F480918E040895823B11F0DD
:10273000823D19F480918F040895853F19F48091AA
:102740009004089580E008951092560490914304F7
:102750008917C8F4209147046217A8F430E02C5F71
:102760003F4F829FA001839F500D11248091490407
:1027700090914A04840F951F70E06C5F7F4F860F25
:10278000971F0C9439098FEF809356040895EF92A8
:10279000FF920F931F93CF93DF939C01472F5527F1
:1027A000822FC32FDD271C2F00914304AEE5B3E039
:1027B000E2EBF3E090E0332777270917F9F01111E6
:1027C00002C0882369F0ED90FC901197CE15DF05CB
:1027D00089F49A96ED90FC909B972E153F0551F445
:1027E000E080F1804E155F0529F4E2A4F3A46E1594
:1027F0007F0549F09F5F12963296DFCF9091460495
:1028000081E0890F01C0892FDF91CF911F910F9136
:10281000FF90EF900895FF920F931F93CF93DF9354
:10282000182FF62EC72FD42F60E0809167040E94E6
:10283000870E83E00E94A70F812F0E94A70F0F2D04
:102840001C2FC0E0CD1751F0C83041F080E00E944D
:10285000A70FF80181938F01CF5FF4CF61E08091E2
:102860006704DF91CF911F910F91FF900C94870E19
:102870000F931F93CF93DF9300D000D0CDB7DEB777
:10288000182F109257041092580410925904109265
:102890005A0410925B0444E0BE016F5F7F4F0E94B8
:1028A0000B142A813981822F90E065E095958795F8
:1028B0006A95E1F748E0349F800D911D1124092E9F
:1028C000000CAA0BBB0B8093580490935904A0935F
:1028D0005A04B0935B0423FF29C032E0880F991F8C
:1028E000AA1FBB1F3A95D1F72370820F911DA11D1E
:1028F000B11DBA2FA92F982F88272B81820F911DE8
:10290000A11DB11DBA2FA92F982F88272C81820FC6
:10291000911DA11DB11D8093580490935904A0935B
:102920005A04B0935B0481E0809357048FEF810FCA
:102930000E94A911082F84E0810F0E94A91103FFB2
:1029400004C091E09093650402C010926504482F82
:102950004F7040935C046DE574E085E0810F0E9448
:102960000B140F900F900F900F90DF91CF911F914C
:102970000F9108951F93CF93DF93CAE3D4E060E0F3
:102980008DA50E94870E80EA0E94A70F80E00E941A
:10299000A70F182F61E08DA50E94870E812FDF9170
:1029A000CF911F910895CF93DF93CDB7DEB72897CE
:1029B0000FB6F894DEBF0FBECDBF10928605809390
:1029C000B10484E090E0909301058093000582E0DB
:1029D00080936C0483E080936D0460919D0470E0AB
:1029E00080E090E0FE013196AE01475F5F4F9F01AE
:1029F0001192E417F507E1F741E04093650440E0E8
:102A00000E94D811109265040E94510F6093020534
:102A100070930305809304059093050528960FB6DF
:102A2000F894DEBF0FBECDBFDF91CF910895CF9355
:102A3000DF93CAE3D4E09F838887692F83E190E026
:102A40000E943709688584E190E0DF91CF910C9472
:102A50003709789484B5826084BD84B5816084BD73
:102A600085B5826085BD85B5816085BD80916E002C
:102A7000816080936E00109281008091810082605D
:102A8000809381008091810081608093810080919A
:102A900080008160809380008091B1008460809389
:102AA000B1008091B00081608093B00080917A0085
:102AB000846080937A0080917A00826080937A00AB
:102AC00080917A00816080937A0080917A0080689A
:102AD00080937A001092C1003E9A61E080E00E94EB
:102AE000B60E61E081E00E94B60E0E94510F683878
:102AF000734181059105E8F460E080E00E94870E53
:102B000060E081E00E94870E64E670E080E090E083
:102B10000E94170F61E080E00E94870E61E081E073
:102B20000E94870E64EF71E080E090E00E94170F32
:102B3000DCCF61E080E00E94870E61E081E00E94CE
:102B4000870E3E98469AA0EAB4E0FD01119284E017
:102B5000E83AF807D9F7EBE4F1E081918D9391E041
:102B6000E335F907D1F78AE58093A9048DE08093D6
:102B7000A80481E38093AB0481E08093AC0480914E
:102B8000AA048E7F82608093AA0488EC90E0A0E083
:102B9000B0E08093B4049093B504A093B604B093CE
:102BA000B704D1E036991BC00E94510F4B015C0164
:102BB000C1E00E94510FDC01CB0188199909AA09D3
:102BC000BB09883E9340A105B10508F093C4CC230E
:102BD00049F3C6B1C6FBCC27C0F9CD27EACF61E0E7
:102BE00080E00E94870E61E081E00E94870E82E50E
:102BF00098E090938805809387058AE08093670426
:102C000061E00E94B60E61E0809167040E94870E29
:102C1000C4E1D0E06FE9A62E60E0B62E73EBE72E9C
:102C200070E0F72ECFB6F89480915F02811126C034
:102C3000F5018491F7012491E82FF0E0EE0FFF1FDA
:102C4000EF52FF4FA591B4919C91822F892321F4DB
:102C500061E08AE00E94870E61E08AE00E94B60E81
:102C60008CB580618CBD8CB580648CBD61E08DE0DD
:102C70000E94B60E61E08BE00E94B60E80915F026A
:102C80008F5F80935F02CFBE60E0809167040E94F7
:102C9000870E80EC0E94A70F61E0809167040E947C
:102CA000870E6AE070E080E090E00E94170F80E8F5
:102CB0000E94C611882381F06AE070E080E090E015
:102CC0000E94170F6EE170E080E090E00E94170F05
:102CD000219709F0A7CF4BC06AE070E080E090E058
:102CE0000E94170F61E08AE20E94691161EB89E29C
:102CF0000E94691165E088E20E9469116AE070E053
:102D000080E090E00E94170F10E360E0812F0E94A6
:102D1000691160E080E1810F0E94691160E080E24A
:102D2000810F0E9469111F5F1E3379F760E080E612
:102D30000E94691160E080E70E94691163E08BE204
:102D40000E94691144E064E680E60E94861140E03A
:102D500060E680E70E94861180E00E94C611811122
:102D6000ABCF6AE070E080E090E00E94170F8FEF39
:102D70008093940562E00E94B60E10925602E09194
:102D8000D102F091D20282E08083E091CD02F091F5
:102D9000CE021082E091CF02F091D00280E18083D8
:102DA0001092D902E091D502F091D60286E080839C
:102DB000E091D302F091D402808180618083E09120
:102DC000D302F091D402808188608083E091D302A5
:102DD000F091D402808180688083E091D302F091E9
:102DE000D40280818F7D808380915602882301F1F7
:102DF000C5E0D0E068EE73E080E090E00E94170F3D
:102E000084E591E00E94AC102197A1F783E791E05F
:102E10000E94301086E591E00E94AC1061E070E005
:102E200080E090E00E94BC1081E791E00E941E10BB
:102E3000F89489E0E0E0F0E0809357003491E3E01B
:102E4000F0E0809357002491E2E0F0E08093570097
:102E50009491E1E0F0E08093570084917894C1E090
:102E60003F3F09F4C0E02C3509F0CE5FE2E0E90F06
:102E7000E23020F0CC5F8F3F19F406C08F3F11F095
:102E8000C85F02C0CC23A1F1809156028823A1F033
:102E900081EE90E00E943E106AE070E08C2F0E946C
:102EA000AE1084E791E00E94301068EE73E080E09D
:102EB00090E00E94170FECCF61E080E00E94B60E18
:102EC00061E081E00E94B60EC1E08D2D8C278170FB
:102ED000D82E682F80E00E94870E6D2D81E00E9421
:102EE000870E64EF71E080E090E00E94170FEDCF55
:102EF000EFE3F2E083E6819322E0E335F207D9F7CE
:102F00008FEF8093530280937602809354028093D4
:102F10007702809355028093780280911502809306
:102F200014020E94230C80915602811104C086E78E
:102F300091E00E94AC1080915602882321F08BED25
:102F400090E00E945B118BE791E00E94AC100E9420
:102F5000F20E60937A0270937B0280937C029093CE
:102F60007D0243E8242E45E0342E0E94F20E609349
:102F70005B0270935C0280935D0290935E0200910D
:102F80007E0210917F0220918002309181026B01BC
:102F90007C01C01AD10AE20AF30A970186010536BC
:102FA00011052105310548F40E94C7008091B30442
:102FB0008823A9F10E94230C32C060937E02709393
:102FC0007F028093800290938102C0E0D1E00E9452
:102FD000BA14837001F1B3C28091680480937605BE
:102FE000809169048093770580916A0480937805C5
:102FF00080916B04809379054093740580916504FA
:103000008111C8C2109275058091FA049091FB0459
:10301000892B09F4C2C2CF5FC23031F2D8CFC09041
:103020005702D0905802E0905902F0905A02C11411
:10303000D104E104F104D1F120919E0430919F0468
:1030400080905B0290905C02A0905D02B0905E0266
:103050008C189D08AE08BF08A0E1B7E20E94361E9A
:10306000681579058A059B0508F51091600224E82A
:10307000C20E23E0D21EE11CF11CC0925702D09276
:103080005802E0925902F0925A0281E0810F809337
:103090006002853108F4CDC210926002109257028E
:1030A000109258021092590210925A028091000513
:1030B00090910105039759F4369909C00E94510F68
:1030C000613177428105910510F00E944C13809187
:1030D0007A0290917B02A0917C02B0917D020097D0
:1030E000A105B10539F120919E0430919F04C09053
:1030F0005B02D0905C02E0905D02F0905E02C81A24
:10310000D90AEA0AFB0AA0E1B7E20E94361EC616F7
:10311000D706E806F90618F4109279020BC081E090
:103120008093790210927A0210927B0210927C02B4
:1031300010927D0280917902882309F4B1C0B6E72C
:10314000CB2EB2E0DB2EC3E5EC2EC2E0FC2E412CF0
:10315000512C3201812C809156028823E1F08AE8BB
:1031600091E00E94AC10C301B2010E94BC1084E93E
:1031700091E00E94AC1062E070E0F70180810E9453
:10318000AE1088E891E00E94AC1062E070E0F601B9
:1031900080810E944D11F6019081F701808198177E
:1031A00009F46CC0982CA12CB12CF701C081D0E09F
:1031B0000A2C02C0D595C7950A94E2F7F6018081E2
:1031C00090E00A2C02C0959587950A94E2F78C2727
:1031D0009D2780FF46C0F3E1F91508F442C0892D10
:1031E0000E941A0BC170092D10E0F801E15CFD4F3F
:1031F000808182FF02C021E0C22780915602000F29
:10320000111F8823B9F087E991E00E94AC10F80102
:10321000E95EFD4F6081718180E090E04AE00E94AC
:10322000591088E891E00E94AC106AE070E08C2FA1
:103230000E944D1190911602F801E95EFD4F6081E8
:10324000718181E0CC2329F0911180E00E9421134B
:1032500004C0911180E00E94F6128BEC97E0019778
:10326000F1F78FEFA81AB80A939498E0A916B10461
:1032700009F09BCFF7018081F6018083FFEFCF1A21
:10328000DF0A2FEFE21AF20A88E0880E9FEF491A50
:10329000590A690A790AE8E18E125DCF1092790223
:1032A000F5E6AF2EF2E0BF2EC1E6D2E0DD24D394E6
:1032B00081EC92E00E945A0D181619060CF017C105
:1032C00081EC92E00E94380D8F3311F0873439F48D
:1032D00063E771E086E692E00E94711FEDC08B34D7
:1032E000F9F480916502813019F78091610283358C
:1032F000F9F680911502813059F038F0823069F08A
:103300008330B1F68DEA91E005C08EE991E002C00C
:1033100083EA91E00E943010CBCF88EA91E0FACFA7
:10332000833409F0CCC080916502843009F0C4C0B8
:1033300080915602811108C0E0916502F0E0EF59DA
:10334000FD4F40E050E06EC007E112E0412C512CEF
:10335000320187E991E00E94AC10C301B2010E94E2
:10336000BC1088E891E00E94AC10F8018191919125
:103370008F010E949A10FFEF4F1A5F0A6F0A7F0AAF
:1033800024E1421651046104710419F782EB91E0C3
:103390000E94AC106AE070E0809165020E944D11BD
:1033A000E1E6EE2EE2E0FE2E870160E170E0F7013B
:1033B00081917F010E94AE1088E891E00E94AC10DC
:1033C00062E070E0F80180810E944D11AE14BF04EC
:1033D00059F7B2CFA02FB0E0B595A7950A2FC90134
:1033E00063E0959587956A95E1F7B901677077274E
:1033F000A0FF24C0DC01AD5ABD4F412C512C32013D
:10340000439404C0440C551C661C771C6A95D2F783
:103410008C91482A4C922F5F3F4F1150D9F64A5F4A
:103420005F4F0083CE17DF07D9F0829190E095952A
:103430008795082F80839A0116E0CCCFDC01AD5A26
:10344000BD4F412C512C3201439404C0440C551CF7
:10345000661C771C6A95D2F740948C914822DACF8B
:1034600003E512E086E7E82E82E0F82EC12CF70192
:1034700081917F01F80190819813D0927902809117
:103480005602882399F08AEB91E00E94AC106AE022
:1034900070E08C2D0E94AE1088E891E00E94AC1084
:1034A00062E070E0F80180810E944D11C3940F5FCB
:1034B0001F4FF3E0CF12DBCF10926502F9CEE6E6A4
:1034C000F2E001900020E9F73197E656F2403F978D
:1034D00008F0EECE90916502943028F4E92FF0E0E8
:1034E000EF59FD4F80839F5F90936502E1CE0E946C
:1034F000FA0D3BCDCC2309F455CB8CE394E00E942C
:10350000070A10926E046091AA046B7F6093AA046C
:103510006093500485E190E00E9437096091AA040D
:103520006093500485E190E00E94370960E081E0FB
:103530000E94870E60E080E00E94870EFFCF0E940D
:10354000BA14C11108C080FF66CD81E60E9438140C
:1035500040E061E007C081FF5ECD81E70E94381442
:1035600040E062E08CE20E94861140915C04EAE354
:10357000F4E09F012A533440319680915C0490E03E
:10358000281739070CF028CD82A1DF01A15CBE4FBE
:103590008C93EFCFD093750537CDEE24E394F12CC7
:1035A000F092FB04E092FA048091F8049091F904FF
:1035B000CC9724F01092F9041092F804E4E7F5E0B7
:1035C0008091F8049091F9042191DC01A654BB4F3D
:1035D00012962C9301969093F9048093F8048091AD
:1035E000FE049091FF0401969093FF048093FE04E3
:1035F0002E163F0629F7CD97BCF08091FC049091E0
:10360000FD040F968C3391052CF49093FD04809368
:10361000FC0404C01092FD041092FC048CE390E0C2
:103620009093FF048093FE041092FB041092FA041E
:10363000F2CCC12FD0E0FE0123E0F595E7952A9565
:10364000E1F7ED5AFD4F808190E0212F277002C0F5
:10365000959587952A95E2F7082F0170FE01E15CA8
:10366000FD4F808182FF02C081E0082780915602D1
:10367000CC0FDD1F882309F18FE791E00E94AC1089
:10368000612F70E080E090E00E94BC1084E891E03F
:103690000E94AC10FE01E95EFD4F6081718180E007
:1036A00090E04AE00E94591086E891E00E94AC1038
:1036B0006AE070E0802F0E944D1190911602C95E61
:1036C000DD4F6881798181E0002329F0911180E04C
:1036D0000E942113EBCC911180E00E94F612E6CCFF
:1036E0008AE394E00C94070B6F927F928F929F92E3
:1036F000AF92BF92CF92DF92EF92FF920F931F9300
:10370000CF93DF93CDB7DEB7C654D1090FB6F89487
:10371000DEBF0FBECDBF1092C4021092C30288EE6E
:1037200093E0A0E0B0E08093C5029093C602A0931E
:10373000C702B093C8028AE091E09093C2028093DE
:10374000C10285EC90E09093CE028093CD0284EC90
:1037500090E09093D0028093CF0280EC90E0909321
:10376000D2028093D10281EC90E09093D4028093B6
:10377000D30282EC90E09093D6028093D50286EC3F
:1037800090E09093D8028093D7021092DA021092C0
:10379000DB021092DC021092DD028CE391E0909348
:1037A0003B0480933A0484E391E090933D0480933A
:1037B0003C0487E794E00E9420098CE291E090931A
:1037C0009C0480939B04E0EAF4E088EA94E020E320
:1037D00021938E179F07E1F784E291E09093BB0459
:1037E0008093BA041092B0041092860527E1FE017E
:1037F0003196A7E5B4E001900D922A95E1F79A83FE
:10380000898321961FAE1EAE219723961FAE1EAE52
:10381000239725961FAE1EAE259727961FAE1EAE88
:103820002797DE011396ECEBF4E08D91819344E051
:10383000E83FF407D1F71092F9041092F8041092BF
:10384000FB041092FA041092FD041092FC041092F2
:10385000FF041092FE0484E391E09A8389838AE155
:103860008A8785E18B8781E08C878D8783E3888BCE
:1038700085E390E09F878E8781E090E00E944B1E59
:103880009C838B83CE0101960E94F009CE010196A4
:103890000E94C70ADA8426E0E22E24E0F22E00E03D
:1038A00010E01B8E0D1510F08FEF04C0C801499673
:1038B0000E94390990E0F701819391937F010F5F96
:1038C0001F4F0A31110569F7EB847884CC84D12C21
:1038D000F4E0CF0ED11C8EE5882E83E0982E92EB7B
:1038E000A92E93E0B92E0E851F85F12C66246394D2
:1038F000198A1A8A1B8A1C8A1B8EEF1410F07F14F7
:1039000010F46B8E13C0C8010E943909898BC8015D
:1039100001960E9439098A8BC80102960E943909D2
:103920008B8BC80103960E9439098C8B3989832FB0
:1039300090E0F401819391934F012A89822F90E0C6
:1039400091A780A79B89492F50E0F501419351939E
:103950005F018C89482F50E051A740A7F3940C0DCC
:103960001D1DF5E1FF12C4CF4B815C8150933F04D4
:1039700040933E044D81409340044E814093410466
:103980004F814093420448854093430449854093C6
:1039900044044A8540934504E09246044C85409394
:1039A00047044D85409348044E855F8550934A04F3
:1039B00040934904488940934B0430934C0420932E
:1039C0004D0490934E0480934F048D89809350044E
:1039D0008E899F899093520480935104888D80939F
:1039E0005304898D809354048A8D809355048B8D64
:1039F00080935604CE0101960E94F10A8CE291E078
:103A00009A838983DE011696CE010E96FD0120E38E
:103A100021938E179F07E1F78B8180939D048C8102
:103A20009D8190939F0480939E04E0EAF4E08D9141
:103A3000819344E0E83AF407D1F78E858093A80497
:103A40008F858093A90488898093AA0489898093AB
:103A5000AB048A898093AC0485E18093AD048AE14C
:103A60008093AF0481E08093AE04CE0101960E9462
:103A700020098B81809379048C8180937A048D81D5
:103A800080937B048E8180937C048F8198859093B2
:103A90007E0480937D0489859A8590938004809329
:103AA0007F048B859C8590938204809381048D850F
:103AB0009E8590938404809383048F859889909346
:103AC00086048093850489899A89909388048093D9
:103AD00087048B8980938904DE015496EAE8F4E038
:103AE0008D91819384E0E239F807D1F78C8D809332
:103AF00092048D8D809393048E8D809394048F8D8A
:103B00008093950488A18093960489A19AA19093AB
:103B10009804809397048BA1809399048CA180933F
:103B20009A048091B00481608093B0041092B10433
:103B30000FEF00938C0500938D0511E010938E0517
:103B400010928F050E94510F60939005709391051C
:103B500080939205909393051092880510928705A3
:103B600010929705109296051092B2041093B30428
:103B7000009394051093950588EC90E0A0E0B0E0E8
:103B80008093B4049093B504A093B604B093B704A3
:103B90008CE394E00E94C70A809141049091420412
:103BA00098278927982790935204809351049093E3
:103BB0009F0480939E048091400480939D0482E042
:103BC0008093AA0483E090E0909301058093000520
:103BD000CA5BDF4F0FB6F894DEBF0FBECDBFDF91DB
:103BE000CF911F910F91FF90EF90DF90CF90BF90FA
:103BF000AF909F908F907F906F900895F999FECF2E
:103C000092BD81BDF89A992780B50895262FF9991C
:103C1000FECF1FBA92BD81BD20BD0FB6F894FA9AAF
:103C2000F99A0FBE01960895A1E21A2EAA1BBB1B9A
:103C3000FD010DC0AA1FBB1FEE1FFF1FA217B30778
:103C4000E407F50720F0A21BB30BE40BF50B661F8E
:103C5000771F881F991F1A9469F760957095809552
:103C600090959B01AC01BD01CF010895A29FB001C9
:103C7000B39FC001A39F700D811D1124911DB29FA0
:103C8000700D811D1124911D0895EE0FFF1F0590E9
:103C9000F491E02D09940F931F93CF93DF9382301B
:103CA000910510F482E090E0E0919E05F0919F056F
:103CB00020E030E0A0E0B0E0309719F14081518180
:103CC0000281138148175907C8F08417950769F4D2
:103CD000109731F012960C93129713961C9327C0ED
:103CE00000939E0510939F0522C02115310519F000
:103CF0004217530718F49A01BD01EF01DF01F801E3
:103D0000DBCF21153105F9F0281B390B24303105A3
:103D100080F48A819B816115710521F0FB019383F9
:103D2000828304C090939F0580939E05FE01329686
:103D300044C0FE01E20FF31F819391932250310999
:103D4000398328833AC020919C0530919D05232B0F
:103D500041F4209102013091030130939D0520939D
:103D60009C0520910001309101012115310541F49C
:103D70002DB73EB74091040150910501241B350B2E
:103D8000E0919C05F0919D05E217F307A0F42E1B2E
:103D90003F0B2817390778F0AC014E5F5F4F2417AF
:103DA000350748F04E0F5F1F50939D0540939C05CB
:103DB0008193919302C0E0E0F0E0CF01DF91CF91D9
:103DC0001F910F910895CF93DF93009709F481C05D
:103DD000FC01329713821282A0919E05B0919F053B
:103DE000109781F420813181820F931F20919C05CF
:103DF00030919D052817390751F5F0939D05E09303
:103E00009C0567C0ED0120E030E0CE17DF0740F4ED
:103E10004A815B819E0141155105F1F0EA01F5CF20
:103E2000D383C28340815181840F951FC817D9075E
:103E300059F488819981840F951F0296918380831C
:103E40008A819B81938382832115310529F4F09324
:103E50009F05E0939E053DC0E901FB83EA834991FC
:103E60005991C40FD51FEC17FD0761F48081918132
:103E7000840F951F0296E90199838883828193813B
:103E80009B838A83E0E0F0E012968D919C911397DA
:103E9000009719F0FD01DC01F7CF8D919C911197EE
:103EA0009D012E5F3F4F820F931F20919C05309103
:103EB0009D052817390769F4309729F410929F055A
:103EC00010929E0502C013821282B0939D05A093AA
:103ED0009C05DF91CF91089581E090E0F8940C94D7
:103EE000781FFB01DC0101900D920020E1F708959D
:103EF00010E0CCE9D0E004C0FE010E94451E2196EE
:0A3F0000CD39D107C9F7F894FFCFBF
:103F0A000000A005800000000000910DFB0C290DA7
:103F1A00D80D5A0D380D4C0D000000001F090D0870
:103F2A0000000000190B11080000000036090F08F4
:103F3A0000000000F10AFD0A00000000070B0F0B49
:103F4A003040507265737056617200415244555F39
:103F5A0047424D002A004172647543414E20474250
:103F6A004D204D617373652056657273696F6E20BB
:103F7A00000D0A0021003C44303E003C533E0050F4
:103F8A006F7274002800293A200070696E73746198
:103F9A0074655B005D3A004576656E743A003C5084
:103FAA00303E003C50313E003C50323E003C5033E3
:103FBA003E00456D7066616E670070696E5374618C
:103FCA00746500557365725F46756E6374696F6ECA
:103FDA003A2000736574416C6C4F75747075747314
:103FEA00004F50433A00204E6F64653A0020436107
:103FFA006E49443A00204D65737361676553697A67
:10400A00653A002053746174653A003C44313E00BD
:04401A003C5700000F
:00000001FF
